{
  "contractName": "KittyContract",
  "abi": [
    {
      "constant": true,
      "inputs": [
        {
          "name": "",
          "type": "uint256"
        }
      ],
      "name": "kitties",
      "outputs": [
        {
          "name": "genes",
          "type": "uint256"
        },
        {
          "name": "birthTime",
          "type": "uint64"
        },
        {
          "name": "cooldownEndBlock",
          "type": "uint64"
        },
        {
          "name": "matronId",
          "type": "uint32"
        },
        {
          "name": "sireId",
          "type": "uint32"
        },
        {
          "name": "generation",
          "type": "uint16"
        }
      ],
      "payable": false,
      "stateMutability": "view",
      "type": "function"
    },
    {
      "constant": false,
      "inputs": [
        {
          "name": "_genes",
          "type": "uint256"
        },
        {
          "name": "_generation",
          "type": "uint16"
        }
      ],
      "name": "createKitty",
      "outputs": [],
      "payable": false,
      "stateMutability": "nonpayable",
      "type": "function"
    },
    {
      "constant": true,
      "inputs": [
        {
          "name": "_id",
          "type": "uint256"
        }
      ],
      "name": "getKitty",
      "outputs": [
        {
          "name": "isGestating",
          "type": "bool"
        },
        {
          "name": "isReady",
          "type": "bool"
        },
        {
          "name": "cooldownIndex",
          "type": "uint256"
        },
        {
          "name": "nextActionAt",
          "type": "uint256"
        },
        {
          "name": "siringWithId",
          "type": "uint256"
        },
        {
          "name": "birthTime",
          "type": "uint256"
        },
        {
          "name": "matronId",
          "type": "uint256"
        },
        {
          "name": "sireId",
          "type": "uint256"
        },
        {
          "name": "generation",
          "type": "uint256"
        },
        {
          "name": "genes",
          "type": "uint256"
        }
      ],
      "payable": false,
      "stateMutability": "view",
      "type": "function"
    }
  ],
  "bytecode": "0x608060405234801561001057600080fd5b50610545806100206000396000f300608060405260043610610057576000357c0100000000000000000000000000000000000000000000000000000000900463ffffffff1680638cc51eda1461005c578063ad1fddfa14610108578063e98b7f4d14610143575b600080fd5b34801561006857600080fd5b50610087600480360381019080803590602001909291905050506101cb565b604051808781526020018667ffffffffffffffff1667ffffffffffffffff1681526020018567ffffffffffffffff1667ffffffffffffffff1681526020018463ffffffff1663ffffffff1681526020018363ffffffff1663ffffffff1681526020018261ffff1661ffff168152602001965050505050505060405180910390f35b34801561011457600080fd5b5061014160048036038101908080359060200190929190803561ffff16906020019092919050505061026c565b005b34801561014f57600080fd5b5061016e600480360381019080803590602001909291905050506103da565b604051808b1515151581526020018a1515151581526020018981526020018881526020018781526020018681526020018581526020018481526020018381526020018281526020019a505050505050505050505060405180910390f35b6000818154811015156101da57fe5b90600052602060002090600202016000915090508060000154908060010160009054906101000a900467ffffffffffffffff16908060010160089054906101000a900467ffffffffffffffff16908060010160109054906101000a900463ffffffff16908060010160149054906101000a900463ffffffff16908060010160189054906101000a900461ffff16905086565b6102746104be565b60c0604051908101604052808481526020014267ffffffffffffffff168152602001600067ffffffffffffffff168152602001600063ffffffff168152602001600063ffffffff1681526020018361ffff168152509050600081908060018154018082558091505090600182039060005260206000209060020201600090919290919091506000820151816000015560208201518160010160006101000a81548167ffffffffffffffff021916908367ffffffffffffffff16021790555060408201518160010160086101000a81548167ffffffffffffffff021916908367ffffffffffffffff16021790555060608201518160010160106101000a81548163ffffffff021916908363ffffffff16021790555060808201518160010160146101000a81548163ffffffff021916908363ffffffff16021790555060a08201518160010160186101000a81548161ffff021916908361ffff160217905550505050505050565b6000806000806000806000806000806000808c8154811015156103f957fe5b906000526020600020906002020190506000600160008060008560010160009054906101000a900467ffffffffffffffff168660010160109054906101000a900463ffffffff168760010160149054906101000a900463ffffffff168860010160189054906101000a900461ffff1689600001548797508696508595508467ffffffffffffffff1694508363ffffffff1693508263ffffffff1692508161ffff1691509a509a509a509a509a509a509a509a509a509a50509193959799509193959799565b60c06040519081016040528060008152602001600067ffffffffffffffff168152602001600067ffffffffffffffff168152602001600063ffffffff168152602001600063ffffffff168152602001600061ffff16815250905600a165627a7a723058207a15da44a9caac53eb256c47fa1cd9c021cebbb2d78933617c78717a37bb0b950029",
  "source": "pragma solidity ^0.4.25;\r\n\r\ncontract KittyContract {\r\n    struct Kitty {\r\n        uint256 genes;\r\n        uint64 birthTime;\r\n        uint64 cooldownEndBlock;\r\n        uint32 matronId;\r\n        uint32 sireId;\r\n        uint16 generation;\r\n    }\r\n\r\n    Kitty[] public kitties;\r\n\r\n    function createKitty(uint256 _genes, uint16 _generation) public {\r\n        Kitty memory newKitty = Kitty({\r\n            genes: _genes,\r\n            birthTime: uint64(now),\r\n            cooldownEndBlock: 0,\r\n            matronId: 0,\r\n            sireId: 0,\r\n            generation: _generation\r\n        });\r\n        kitties.push(newKitty);\r\n    }\r\n\r\n    function getKitty(uint256 _id)\r\n        external\r\n        view\r\n        returns (\r\n            bool isGestating,\r\n            bool isReady,\r\n            uint256 cooldownIndex,\r\n            uint256 nextActionAt,\r\n            uint256 siringWithId,\r\n            uint256 birthTime,\r\n            uint256 matronId,\r\n            uint256 sireId,\r\n            uint256 generation,\r\n            uint256 genes\r\n        )\r\n    {\r\n        Kitty storage kitty = kitties[_id];\r\n        // Return dummy values for unused fields to match interface\r\n        return (\r\n            false,\r\n            true,\r\n            0,\r\n            0,\r\n            0,\r\n            kitty.birthTime,\r\n            kitty.matronId,\r\n            kitty.sireId,\r\n            kitty.generation,\r\n            kitty.genes\r\n        );\r\n    }\r\n}\r\n",
  "sourcePath": "C:\\Users\\KIIT\\Desktop\\Cryptozombie demo package\\contracts\\kittycontract.sol",
  "compiler": {
    "name": "solc",
    "version": "0.4.25+commit.59dbf8f1.Emscripten.clang"
  },
  "schemaVersion": "3.4.16",
  "updatedAt": "2025-10-21T11:07:35.108Z",
  "networkType": "ethereum",
  "devdoc": {
    "methods": {}
  },
  "userdoc": {
    "methods": {}
  }
}